{
  "contractName": "RegistrarProxy",
  "abi": [
    {
      "constant": true,
      "inputs": [],
      "name": "registrarImpl",
      "outputs": [
        {
          "name": "",
          "type": "address"
        }
      ],
      "payable": false,
      "stateMutability": "view",
      "type": "function"
    },
    {
      "inputs": [
        {
          "name": "_registrarImpl",
          "type": "address"
        }
      ],
      "payable": false,
      "stateMutability": "nonpayable",
      "type": "constructor"
    },
    {
      "payable": true,
      "stateMutability": "payable",
      "type": "fallback"
    }
  ],
  "bytecode": "0x608060405234801561001057600080fd5b5060405160208061021d83398101806040528101908080519060200190929190505050806000806101000a81548173ffffffffffffffffffffffffffffffffffffffff021916908373ffffffffffffffffffffffffffffffffffffffff1602179055505061019a806100836000396000f300608060405260043610610041576000357c0100000000000000000000000000000000000000000000000000000000900463ffffffff168063174b62a9146100a1575b61009f6000809054906101000a900473ffffffffffffffffffffffffffffffffffffffff166000368080601f0160208091040260200160405190810160405280939291908181526020018383808284378201915050505050506100f8565b005b3480156100ad57600080fd5b506100b6610136565b604051808273ffffffffffffffffffffffffffffffffffffffff1673ffffffffffffffffffffffffffffffffffffffff16815260200191505060405180910390f35b6101018261015b565b151561010c57600080fd5b600080825160208401856127105a03f43d604051816000823e8260008114610132578282f35b8282fd5b6000809054906101000a900473ffffffffffffffffffffffffffffffffffffffff1681565b600080823b9050600081119150509190505600a165627a7a72305820e8179d627efb2733c52e8aaa6642b17a30e9dbbb9b8a5b57f8debf65164badb00029",
  "source": "// This was based a AragonOS' proxy system modified by William\n// Distributed under the GPL 3.0 license\n\npragma solidity ^0.4.18;\n\nimport \"./RegistrarStorage.sol\";\nimport \"./DelegateProxy.sol\";\n\n/**\n * @title RegistrarProxy\n * @dev The proxy contract that forwards all function calls to the registrar\n * Implementation that is currently being used\n */\ncontract RegistrarProxy is RegistrarStorage, DelegateProxy {\n\n    // This is a proxy contract to a registrar implementation. The implementation can\n    // Update the reference, which upgrades the contract\n\n    function RegistrarProxy(address _registrarImpl) public {\n        registrarImpl = _registrarImpl;\n    }\n\n    // All calls made to the proxy are forwarded to the registrar implementation via a delegatecall\n    function () payable public {\n        delegatedFwd(registrarImpl, msg.data);\n    }\n\n}\n",
  "sourcePath": "/Users/WilliamHuang/Developer/Job-Development/BitNation/pns/contracts/RegistrarProxy.sol",
  "compiler": {
    "name": "solc",
    "version": "0.4.24+commit.e67f0147.Emscripten.clang"
  },
  "schemaVersion": "2.0.0",
  "updatedAt": "2018-08-22T17:28:00.203Z"
}