{
  "contractName": "Registrar",
  "abi": [
    {
      "inputs": [
        {
          "name": "_ownerAddr",
          "type": "address"
        },
        {
          "name": "_rootNode",
          "type": "bytes32"
        },
        {
          "name": "_ensAddr",
          "type": "address"
        }
      ],
      "payable": false,
      "stateMutability": "nonpayable",
      "type": "constructor"
    },
    {
      "constant": false,
      "inputs": [
        {
          "name": "_node",
          "type": "bytes32"
        },
        {
          "name": "_subnodeLabel",
          "type": "string"
        },
        {
          "name": "_setTTL",
          "type": "uint64"
        }
      ],
      "name": "registerSubDomain",
      "outputs": [],
      "payable": false,
      "stateMutability": "nonpayable",
      "type": "function"
    },
    {
      "constant": false,
      "inputs": [
        {
          "name": "_node",
          "type": "bytes32"
        },
        {
          "name": "_resolver",
          "type": "address"
        }
      ],
      "name": "setSubdomainResolver",
      "outputs": [],
      "payable": false,
      "stateMutability": "nonpayable",
      "type": "function"
    },
    {
      "constant": true,
      "inputs": [
        {
          "name": "str",
          "type": "string"
        }
      ],
      "name": "testStr",
      "outputs": [
        {
          "name": "",
          "type": "bool"
        }
      ],
      "payable": false,
      "stateMutability": "pure",
      "type": "function"
    }
  ],
  "bytecode": "0x608060405234801561001057600080fd5b506040516060806109e883398101806040528101908080519060200190929190805190602001909291908051906020019092919050505082600260006101000a81548173ffffffffffffffffffffffffffffffffffffffff021916908373ffffffffffffffffffffffffffffffffffffffff160217905550816001816000191690555080600360006101000a81548173ffffffffffffffffffffffffffffffffffffffff021916908373ffffffffffffffffffffffffffffffffffffffff160217905550505050610902806100e66000396000f300608060405260043610610057576000357c0100000000000000000000000000000000000000000000000000000000900463ffffffff1680635684cff51461005c57806387ae83ee146100dd578063912a1d4a14610168575b600080fd5b34801561006857600080fd5b506100c3600480360381019080803590602001908201803590602001908080601f01602080910402602001604051908101604052809392919081815260200183838082843782019150505050505091929192905050506101b9565b604051808215151515815260200191505060405180910390f35b3480156100e957600080fd5b506101666004803603810190808035600019169060200190929190803590602001908201803590602001908080601f0160208091040260200160405190810160405280939291908181526020018383808284378201915050505050509192919290803567ffffffffffffffff169060200190929190505050610495565b005b34801561017457600080fd5b506101b76004803603810190808035600019169060200190929190803573ffffffffffffffffffffffffffffffffffffffff1690602001909291905050506107ed565b005b600060606000808492506004835110156101d6576000935061048d565b5b82518210156104885782828151811015156101ee57fe5b9060200101517f010000000000000000000000000000000000000000000000000000000000000090047f010000000000000000000000000000000000000000000000000000000000000002905060307f010000000000000000000000000000000000000000000000000000000000000002817effffffffffffffffffffffffffffffffffffffffffffffffffffffffffffff1916101580156102d5575060397f010000000000000000000000000000000000000000000000000000000000000002817effffffffffffffffffffffffffffffffffffffffffffffffffffffffffffff191611155b158015610379575060417f010000000000000000000000000000000000000000000000000000000000000002817effffffffffffffffffffffffffffffffffffffffffffffffffffffffffffff1916101580156103775750605a7f010000000000000000000000000000000000000000000000000000000000000002817effffffffffffffffffffffffffffffffffffffffffffffffffffffffffffff191611155b155b801561041c575060617f010000000000000000000000000000000000000000000000000000000000000002817effffffffffffffffffffffffffffffffffffffffffffffffffffffffffffff19161015801561041a5750607a7f010000000000000000000000000000000000000000000000000000000000000002817effffffffffffffffffffffffffffffffffffffffffffffffffffffffffffff191611155b155b801561046d5750602d7f010000000000000000000000000000000000000000000000000000000000000002817effffffffffffffffffffffffffffffffffffffffffffffffffffffffffffff191614155b1561047b576000935061048d565b81806001019250506101d7565b600193505b505050919050565b606060006104a2846101b9565b15156104ad57600080fd5b839150816040518082805190602001908083835b6020831015156104e657805182526020820191506020810190506020830392506104c1565b6001836020036101000a0380198251168184511680821785525050505050509050019150506040518091039020905060015460001916856000191614156106f057600260009054906101000a900473ffffffffffffffffffffffffffffffffffffffff1673ffffffffffffffffffffffffffffffffffffffff166306ab592360015483336040518463ffffffff167c010000000000000000000000000000000000000000000000000000000002815260040180846000191660001916815260200183600019166000191681526020018273ffffffffffffffffffffffffffffffffffffffff1673ffffffffffffffffffffffffffffffffffffffff1681526020019350505050600060405180830381600087803b15801561060657600080fd5b505af115801561061a573d6000803e3d6000fd5b50505050600260009054906101000a900473ffffffffffffffffffffffffffffffffffffffff1673ffffffffffffffffffffffffffffffffffffffff166314ab903882856040518363ffffffff167c01000000000000000000000000000000000000000000000000000000000281526004018083600019166000191681526020018267ffffffffffffffff1667ffffffffffffffff16815260200192505050600060405180830381600087803b1580156106d357600080fd5b505af11580156106e7573d6000803e3d6000fd5b505050506107e6565b600260009054906101000a900473ffffffffffffffffffffffffffffffffffffffff1673ffffffffffffffffffffffffffffffffffffffff166306ab59238683336040518463ffffffff167c010000000000000000000000000000000000000000000000000000000002815260040180846000191660001916815260200183600019166000191681526020018273ffffffffffffffffffffffffffffffffffffffff1673ffffffffffffffffffffffffffffffffffffffff1681526020019350505050600060405180830381600087803b1580156107cd57600080fd5b505af11580156107e1573d6000803e3d6000fd5b505050505b5050505050565b600260009054906101000a900473ffffffffffffffffffffffffffffffffffffffff1673ffffffffffffffffffffffffffffffffffffffff16631896f70a83836040518363ffffffff167c01000000000000000000000000000000000000000000000000000000000281526004018083600019166000191681526020018273ffffffffffffffffffffffffffffffffffffffff1673ffffffffffffffffffffffffffffffffffffffff16815260200192505050600060405180830381600087803b1580156108ba57600080fd5b505af11580156108ce573d6000803e3d6000fd5b5050505050505600a165627a7a7230582031721fb5333a7fdeedd676eafa73d81c45810e973b57696d02d64ded31173b160029",
  "source": "pragma solidity ^0.4.24;\n\nimport \"./ENS.sol\";\nimport \"./ManagedDomainOwner.sol\";\n\ncontract Registrar {\n\n    struct SubNode {\n        address owner;\n        address rootNode;\n        address resolver;\n        uint64 ttl;\n    }\n\n    mapping (bytes32 => SubNode) subnodes;\n\n    bytes32 rootNode;\n    ManagedDomainOwner domainOwner;\n    address ens;\n\n    /**\n     * Constructor.\n     * @param _ownerAddr The address of the Domain Owner contract.\n     * @param _rootNode The node that bitnation is being registered under\n     * @param _ensAddr The address of the ENS registry\n     */\n    constructor(address _ownerAddr, bytes32 _rootNode, address _ensAddr) public {\n        domainOwner = ManagedDomainOwner(_ownerAddr);\n        rootNode = _rootNode;\n        ens = _ensAddr;\n    }\n\n\n    /**\n    * Register a sub domain under another domain. The msg.sender must own the node the subdomain\n    * is being registered under.\n    * @param _node The main node that is being registered under\n    * @param _subnodeLabel The label of the subnode that is being registered\n    * @param _setTTL The timeout for the domain\n    */\n    function registerSubDomain(bytes32 _node, string _subnodeLabel, uint64 _setTTL) public {\n\n        require(testStr(_subnodeLabel));\n\n        bytes memory label = bytes(_subnodeLabel);\n        bytes32 hashedLabel = keccak256(label);\n\n        // If the subnode being registered is under the main bitnation node\n        // Charge monthly fee here\n        if (_node == rootNode) {\n\n            // TODO: establish subscription where registerer pays X wei per month here\n\n            // Set the first subdomain\n            domainOwner.setSubnodeOwner(rootNode, hashedLabel, msg.sender);\n            // Set the timeout for the first subnode.\n            domainOwner.setTTL(hashedLabel, _setTTL);\n        } else {\n            // Otherwise they are trying to set a sub-sub domain or higher so just set it\n            domainOwner.setSubnodeOwner(_node, hashedLabel, msg.sender);\n        }\n    }\n\n    function setSubdomainResolver(bytes32 _node, address _resolver) public {\n        domainOwner.setResolver(_node, _resolver);\n    }\n\n    function testStr(string str) public pure returns (bool){\n        bytes memory b = bytes(str);\n        if(b.length < 4) return false;\n\n        for(uint i; i<b.length; i++){\n            bytes1 char = b[i];\n\n            if(\n                !(char >= 0x30 && char <= 0x39) && // 9-0\n            !(char >= 0x41 && char <= 0x5A) && // A-Z\n            !(char >= 0x61 && char <= 0x7A) && // a-z\n            !(char == 0x2D) // -\n            )\n                return false;\n        }\n\n        return true;\n    }\n\n}",
  "sourcePath": "/Users/WilliamHuang/Developer/Job-Development/BitNation/pns/contracts/Registrar.sol",
  "compiler": {
    "name": "solc",
    "version": "0.4.24+commit.e67f0147.Emscripten.clang"
  },
  "schemaVersion": "2.0.0",
  "updatedAt": "2018-08-24T22:21:11.996Z"
}