{
  "contractName": "RegistrarStorage",
  "abi": [
    {
      "constant": true,
      "inputs": [],
      "name": "registrarImpl",
      "outputs": [
        {
          "name": "",
          "type": "address"
        }
      ],
      "payable": false,
      "stateMutability": "view",
      "type": "function"
    }
  ],
  "bytecode": "0x608060405234801561001057600080fd5b5060e98061001f6000396000f300608060405260043610603f576000357c0100000000000000000000000000000000000000000000000000000000900463ffffffff168063174b62a9146044575b600080fd5b348015604f57600080fd5b5060566098565b604051808273ffffffffffffffffffffffffffffffffffffffff1673ffffffffffffffffffffffffffffffffffffffff16815260200191505060405180910390f35b6000809054906101000a900473ffffffffffffffffffffffffffffffffffffffff16815600a165627a7a723058207361fd4ce65c3320d40248d27860ac1d94934525566eed9bc69eee897a3ee9c40029",
  "source": "pragma solidity ^0.4.18;\n\n/**\n * @title RegistrarStorage\n * @dev Contains the address of the current registrar implementation\n */\ncontract RegistrarStorage {\n    address public registrarImpl;\n}\n",
  "sourcePath": "/Users/WilliamHuang/Developer/Job-Development/BitNation/pns/contracts/RegistrarStorage.sol",
  "compiler": {
    "name": "solc",
    "version": "0.4.24+commit.e67f0147.Emscripten.clang"
  },
  "schemaVersion": "2.0.0",
  "updatedAt": "2018-08-22T17:28:00.203Z"
}