{
  "contractName": "Resolver",
  "abi": [
    {
      "constant": true,
      "inputs": [
        {
          "name": "interfaceID",
          "type": "bytes4"
        }
      ],
      "name": "supportsInterface",
      "outputs": [
        {
          "name": "",
          "type": "bool"
        }
      ],
      "payable": false,
      "stateMutability": "view",
      "type": "function"
    },
    {
      "constant": true,
      "inputs": [
        {
          "name": "nodeID",
          "type": "bytes32"
        }
      ],
      "name": "addr",
      "outputs": [
        {
          "name": "",
          "type": "address"
        }
      ],
      "payable": false,
      "stateMutability": "view",
      "type": "function"
    }
  ],
  "bytecode": "0x608060405234801561001057600080fd5b506101aa806100206000396000f30060806040526004361061004c576000357c0100000000000000000000000000000000000000000000000000000000900463ffffffff16806301ffc9a7146100515780633b3b57de146100b5575b600080fd5b34801561005d57600080fd5b5061009b60048036038101908080357bffffffffffffffffffffffffffffffffffffffffffffffffffffffff19169060200190929190505050610126565b604051808215151515815260200191505060405180910390f35b3480156100c157600080fd5b506100e46004803603810190808035600019169060200190929190505050610174565b604051808273ffffffffffffffffffffffffffffffffffffffff1673ffffffffffffffffffffffffffffffffffffffff16815260200191505060405180910390f35b6000633b3b57de7c010000000000000000000000000000000000000000000000000000000002827bffffffffffffffffffffffffffffffffffffffffffffffffffffffff1916149050919050565b60003090509190505600a165627a7a72305820d5ee9d355f07e261242ff404a502e6578f0c7c56e086858eb40f0a0d8675cc070029",
  "source": "pragma solidity ^0.4.24;\n\ncontract Resolver {\n\n    function supportsInterface(bytes4 interfaceID) constant returns (bool) {\n        return interfaceID == 0x3b3b57de;\n    }\n\n    function addr(bytes32 nodeID) constant returns (address) {\n        return address(this);\n    }\n\n}",
  "sourcePath": "/Users/WilliamHuang/Developer/Job-Development/BitNation/pns/contracts/Resolver.sol",
  "compiler": {
    "name": "solc",
    "version": "0.4.24+commit.e67f0147.Emscripten.clang"
  },
  "schemaVersion": "2.0.0",
  "updatedAt": "2018-08-22T17:14:03.911Z"
}